:020000001328C3
:1000080080318B190B1C0B2881260B10090021004D
:10001800111C09002000111C0900072709001428D9
:10002800E701D901DA01DB01DC01DD01DE01DF01D5
:10003800E001E101E201E3012000822D2000C80176
:10004800C301C401C501C601C901CA01C701CF0165
:10005800D001692A0D1E0800E301E30A0800220006
:100068008D1329233508D5003608D6003708D70060
:100078005508BC005608BD005708BE009A30BF009E
:100088002130C0004130C100B32503185128220097
:100098000D170A302000E300080022000D139030ED
:1000A8002C00930022008E1602302000E300080086
:1000B8000530C80A4802031C08000C1A66282200EA
:1000C8008C16682822008C1229233508D50036089A
:1000D800D6003708D7005508BC005608BD00570899
:1000E800BE009A30BF002130C0004130C100B325A6
:1000F8000318862822000D1790302C009300220048
:100108008E124D280330E3000800C03067142C001D
:10011800930004302000E3000800C30A0319C40A4E
:1001280029233508D5003608D6003708D7005508E2
:10013800BC005608BD005708BE009A30BF002130E9
:10014800C0004130C100B325031C7E284408803A12
:10015800C20081304202031DB3282D304302031C24
:10016800080022000E1505302000E3000800C50A2B
:100178000319C60A0D1AD92829233508D5003608C7
:10018800D6003708D7009A30BC002130BD00413076
:10019800BE005508BF005608C0005708C100B32567
:1001A8000318802822000D1380285508BC00560823
:1001B800BD005708BE009A30BF002130C000413052
:1001C800C100B325031C7E284608803AC20080304F
:1001D8004202031DF1280B304502031C08002200CF
:1001E8000D130E1520000630D901DA01DB01DC0100
:1001F800E3000800C90A0319CA0A0D1A27299A3008
:10020800BC002130BD004130BE005508BF00560873
:10021800C0005708C100B3250318142922000D1384
:1002280090302C00930022008E120E11232990305A
:100238002C00930022008E12A82622008D1707306A
:100248002000E30008005508BC005608BD00570808
:10025800BE009A30BF002130C0004130C100B32534
:10026800031C7E284A08803AC200A3304202031DBC
:100278003F292930490203181B2920004A08803ADF
:10028800C20082304202031D4B295830490203182C
:100298005129270011151215080020005C08CE000E
:1002A8005B08CD005A08CC005908CB005408530409
:1002B800520451040319CE1B70294E08031D6E29E0
:1002C8004D08031D6E294C08031D6E2903304B028F
:1002D800031C702922008E142000D41BA329540863
:1002E800031D80295308031D80295208031D8029F6
:1002F80001305102031CA3295408F3005308F200EB
:100308005208F1005108F0004E08F7004D08F600B9
:100318004C08F5004B08F4000C24F31BA3297308C0
:10032800031DA0297208031DA0297108031DA02917
:1003380002307002031CA32922008E14A529220072
:100348008E100E1127001111121108000330C70A70
:100358004702031C08000C1AB42922008C16B6297F
:1003680022008C1208302000E30008000930E30066
:100378000800CF0A0319D00A5008803AC200843016
:100388004202031DC929B1304F02031C502A220022
:100398000E1520005008803AC20084304202031D26
:1003A800D729BB304F02031CE82920005008803AA7
:1003B800C20084304202031DE329BC304F020318F7
:1003C800E82927001115121520005008803AC200AC
:1003D80087304202031DF22909304F02031C08002E
:1003E80020005C08D4005B08D3005A08D2005908E2
:1003F800D10054085304520451040319CE1B132A84
:100408004E08031D112A4D08031D112A4C08031D0F
:10041800112A03304B02031C132A22008E102000DD
:10042800D41B462A5408031D232A5308031D232AD4
:100438005208031D232A01305102031C462A54087E
:10044800F3005308F2005208F1005108F0004E087A
:10045800F7004D08F6004C08F5004B08F4000C2492
:10046800F31B462A7308031D432A7208031D432AF7
:100478007108031D432A02307002031C462A220019
:100488008E14482A22008E100E110A302000E30034
:1004980027001111121108002000D901DA01DB012F
:1004A800DC01080067100D1E5B2A00000800C3016C
:1004B800C401C501C601C701C901CA01CF01D001E4
:1004C80022000E112000E3010800630884000B30AD
:1004D800040203184D288631D8300407820008002A
:1004E8002908AF002A08B0002B08B1000310300D0E
:1004F800310DB4002C08AF002D08B0002E08B10053
:100508000310300D310DB30034080319972A33084E
:100518003402330803189F2AAF003408AF02193099
:100528002F02031C9E2A2C08A9002D08AA002E08B9
:10053800AB00080033080319080034083302031815
:10054800AD2A3408AF003308AF0219302F02031860
:1005580008000630B200AB1BB217AE1B3217AA1741
:10056800AB01AD17AE01330834020318D22AAC35FB
:10057800AD0DAE0DB303330834060319CD2AB2030B
:10058800320807390319CD2ABB2AAB36AA0CA90CA5
:10059800B40A340833060319EC2AC92A340833028A
:1005A8000318EC2AA935AA0DAB0DB4033308340699
:1005B8000319E82AB203320807390319E82AD62AA8
:1005C800AE36AD0CAC0CB30A34083306031DE42A6E
:1005D800B21FF72AFF30A906AA06AB06A90A031913
:1005E800AA0A0319AB0A321F022BFF30AC06AD066C
:1005F800AE06AC0A0319AD0A0319AE0AB2012908FE
:10060800AC072A08AD3D2B08AE3DAE1F162BFF30B8
:10061800AC06AD06AE06AC0A0319AD0A0319AE0A5C
:10062800B201B20A2C08F0002D08F1002E08F200E1
:100638003408F3003208F400442570082000A900AB
:100648007108AA007208AB0008002000B901BA01BD
:10065800BB01B801043056267108F9007008F8008B
:10066800B92678082000A9007908AA007A08AB0002
:100678003908AC003A08AD003B08AE0074222908DE
:10068800B9002A08BA002B08BB000A30B80A380299
:10069800031C2E2B2030F801F9004130FA003908EC
:1006A800FB003A08FC003B08FD00E2247808200023
:1006B800B9007908BA007A08BB004030F801F9019E
:1006C800FA003908FB003A08FC003B08FD007824D2
:1006D80078082000B9007908BA007A08BB009A3077
:1006E800A900D930AA004030AB00C730F800D1309B
:1006F800F9004030FA003908FB003A08FC003B08D2
:10070800FD00782478082000AC007908AD007A084C
:10071800AE0074222908B9002A08BA002B08BB00C9
:100728003908B5003A08B6003B08B7000800B90117
:10073800BA01BB01B801083056267108F9007008E3
:10074800F800B92678082000A9007908AA007A08D4
:10075800AB003908AC003A08AD003B08AE00742283
:100768002908B9002A08BA002B08BB000A30B80AC1
:100778003802031C9F2B2030F801F9004130FA00A1
:100788003908FB003A08FC003B08FD00E224780821
:100798002000B9007908BA007A08BB004030F80197
:1007A800F901FA003908FB003A08FC003B08FD0093
:1007B800782478082000B9007908BA007A08BB00C4
:1007C8009A30A900D930AA004030AB005F30F80059
:1007D8001230F9004130FA003908FB003A08FC00F1
:1007E8003B08FD00782478082000AC007908AD00AB
:1007F8007A08AE0074222908B9002A08BA002B0822
:10080800BB003908B5003A08B6003B08B700080035
:10081800F901F31F1C2CF009F109F209F309F00A98
:100828000319F10A0319F20A0319F30AF901F90A7B
:10083800F71F2B2CF409F509F609F709F40A03192F
:10084800F50A0319F60A0319F70A0130F906FA013D
:10085800FB01FC01FD0173087204710470040319A3
:10086800612CF801F80AF31B3E2CF035F10DF20D5E
:10087800F30D362CFA35FB0DFC0DFD0D73087702D0
:10088800031D502C72087602031D502C7108750246
:10089800031D502C70087402031C5B2C7008F402B2
:1008A8007108F53B7208F63B7308F73B7A14F33688
:1008B800F20CF10CF00CF80B3E2C790803196F2C94
:1008C800FA09FB09FC09FD09FA0A0319FB0A0319CD
:1008D800FC0A0319FD0A7D08F3007C08F2007B0876
:1008E800F1007A08F00008007808A0007908A10053
:1008F8007A08A2000310210D220DA3002308031D6E
:10090800892CF801F901FA0108007B08A0007C088D
:10091800A1007D08A2000310210D220DA8002808BF
:10092800031D9A2CF801F901FA01080028087B3EFA
:10093800A3077A08A8007D08A8068030A805FF301C
:10094800F917FC17FB05FC050730FD01A401A501FB
:10095800A601A700781CB62C7B08A4077C08A53D37
:100968007D08A63DFA36F90CF80CFB35FC0DFD0D9B
:10097800A70BAE2C0930A700781CC82C7B08A4074D
:100988007C08A53D7D08A63DFA36F90CF80CA6367C
:10099800A50CA40CA70BC02C2408F0002508F10016
:1009A8002608F2002308F3002808F40044257008FC
:1009B800F8007108F9007208FA0008007B08A00026
:1009C8007C08A1007D08A2000310210D220DA700BC
:1009D8002708031DF32CF801F901FA01080078082B
:1009E800A0007908A1007A08A2000310210D220DA9
:1009F800A8002808031D042DF801F901FA010800D0
:100A08008930A401A501A6012807A000A7027D0836
:100A1800A8007A08A8068030A8051830FC17FD0140
:100A2800F917FA01A300A435A50DA60D7A087D02D1
:100A3800031D242D79087C02031D242D78087B02D0
:100A4800031C2D2D7808FB027908FC3B7A08FD3B36
:100A58002414FB35FC0DFD0DA30B172D2408F00005
:100A68002508F1002608F2002708F3002808F400FA
:100A780044257008F8007108F9007208FA000800A7
:100A8800730803194C2D720871047004031D542D4A
:100A9800F001F101F2010800F30AF236F10CF00C52
:100AA800FE3072050319622D502DF30AF00A03195E
:100AB800F10A0319F20AF236F10CF00CFF30720554
:100AC80003196F2D592D02307302031C712DF30386
:100AD800F035F10DF20DF11F672D731CF113F3368C
:100AE8007308F700F601F5017508F0047608F104BB
:100AF8007708F2047408031DF2170800EE268B1716
:100B08000B173230F000F1016D2627001111121178
:100B180012302100970003302300970022008E171F
:100B280063002000D801630020000530D80A58026D
:100B3800031C972D22008E13630064002220DF25FA
:100B48000A2695262000E7106718AC2DB02D000066
:100B58002000E718A12DAB2D63000000A12DBE1FBA
:100B6800C22D3C08003CBC003D08031C3D0F003C66
:100B7800BD003E08031C3E0F803CBE00C11FD12DA6
:100B88003F08003CBF004008031C400F003CC00069
:100B98004108031C410F803CC1008030BE06C106DD
:100BA80041083E02031D080040083D02031D0800DD
:100BB8003F083C0208002000C601C201C301C4016D
:100BC800C5018D1E072E9A30BC007130BD00413022
:100BD800BE009B233508BF003608C0003708C10097
:100BE800B325031808000130C2070030C33DC43DD7
:100BF800C53D8E1D042E22008E152000C60A080051
:100C080022008E11080022008E11080001302000F9
:100C1800DD070030DE3DDF3DE03D6008031D1C2E92
:100C2800C1305D0227305E3B09305F3B031C080082
:100C38006308031D08009A30BC007130BD004130C4
:100C4800BE009B233508BF003608C0003708C10026
:100C5800B32503180800A82E203022008C001F306E
:100C680021008C00033023008C0024008C0122001A
:100C78008D01303021008D0023008D0124008D016D
:100C8800803022008E00493021008E004130230040
:100C98008E002100951722009D01270012151115BD
:100CA8008B150800F300F200F20DF20D21001D086B
:100CB8007206833972069D001D1421009D149D182B
:100CC800632E1C08F100F0011B08F0070318F10A55
:100CD80008007108F3007008F200F336F20CF336DE
:100CE800F20C72082C00920070080339F200F20C22
:100CF800F20C720CC0399100080027001219862ED8
:100D0800111D0800131D080001302000D90700300C
:100D1800DA3DDB3DDC3D803022008E0627001311D2
:100D280008000230620203189D2EE20A22008E1784
:100D38000800063061020318A52EE10A22008E136E
:100D48000800E201E101A12E22000E16F001630065
:100D58000730F00A7002031CAB2E22000E1220008E
:100D6800DD01DE01DF01E00108007808F000790804
:100D7800F1008E30F201F300F40144257008F80008
:100D88007108F9007208FA0008002000980199011A
:100D9800FD30970096011708E500E4011608E40401
:100DA800111021001114252F2E2833285C2889289A
:100DB8009128BB28FE28AA29BA29BD29562A21002C
:100DC8001508C03917389500803020009500E600D6
:100DD8000B1108001C27302621270F27F726162776
:100DE800FF26C926E32E80302C00930003309200A2
:100DF800C03091000800013021009D009E019F0134
:100E08009B019C0108001110650897006408960072
:100E18002A27E714080020009C0107309B009A014C
:100E28009110282F960103309500C03094000800D7
:100E38000230210099009A010800A2302200970090
:0E0E480008002000181408001C1508000800FF
:020000040001F9
:04000E00FCFFFFD71D
:00000001FF
